{"abi":[{"type":"constructor","inputs":[{"name":"initialOwner","type":"address","internalType":"address"}],"stateMutability":"nonpayable"},{"type":"function","name":"balanceOf","inputs":[{"name":"account","type":"address","internalType":"address"},{"name":"id","type":"uint256","internalType":"uint256"}],"outputs":[{"name":"","type":"uint256","internalType":"uint256"}],"stateMutability":"view"},{"type":"function","name":"balanceOfBatch","inputs":[{"name":"accounts","type":"address[]","internalType":"address[]"},{"name":"ids","type":"uint256[]","internalType":"uint256[]"}],"outputs":[{"name":"","type":"uint256[]","internalType":"uint256[]"}],"stateMutability":"view"},{"type":"function","name":"exists","inputs":[{"name":"id","type":"uint256","internalType":"uint256"}],"outputs":[{"name":"","type":"bool","internalType":"bool"}],"stateMutability":"view"},{"type":"function","name":"incrementAmount","inputs":[{"name":"tokenId","type":"uint256","internalType":"uint256"}],"outputs":[{"name":"amount","type":"uint256","internalType":"uint256"}],"stateMutability":"view"},{"type":"function","name":"isApprovedForAll","inputs":[{"name":"account","type":"address","internalType":"address"},{"name":"operator","type":"address","internalType":"address"}],"outputs":[{"name":"","type":"bool","internalType":"bool"}],"stateMutability":"view"},{"type":"function","name":"mint","inputs":[{"name":"id","type":"uint256","internalType":"uint256"}],"outputs":[],"stateMutability":"payable"},{"type":"function","name":"mintPrice","inputs":[{"name":"tokenId","type":"uint256","internalType":"uint256"}],"outputs":[{"name":"amount","type":"uint256","internalType":"uint256"}],"stateMutability":"view"},{"type":"function","name":"owner","inputs":[],"outputs":[{"name":"","type":"address","internalType":"address"}],"stateMutability":"view"},{"type":"function","name":"pause","inputs":[],"outputs":[],"stateMutability":"nonpayable"},{"type":"function","name":"paused","inputs":[],"outputs":[{"name":"","type":"bool","internalType":"bool"}],"stateMutability":"view"},{"type":"function","name":"renounceOwnership","inputs":[],"outputs":[],"stateMutability":"nonpayable"},{"type":"function","name":"royaltyInfo","inputs":[{"name":"","type":"uint256","internalType":"uint256"},{"name":"_salePrice","type":"uint256","internalType":"uint256"}],"outputs":[{"name":"receiver","type":"address","internalType":"address"},{"name":"royaltyAmount","type":"uint256","internalType":"uint256"}],"stateMutability":"view"},{"type":"function","name":"safeBatchTransferFrom","inputs":[{"name":"from","type":"address","internalType":"address"},{"name":"to","type":"address","internalType":"address"},{"name":"ids","type":"uint256[]","internalType":"uint256[]"},{"name":"values","type":"uint256[]","internalType":"uint256[]"},{"name":"data","type":"bytes","internalType":"bytes"}],"outputs":[],"stateMutability":"nonpayable"},{"type":"function","name":"safeTransferFrom","inputs":[{"name":"from","type":"address","internalType":"address"},{"name":"to","type":"address","internalType":"address"},{"name":"id","type":"uint256","internalType":"uint256"},{"name":"value","type":"uint256","internalType":"uint256"},{"name":"data","type":"bytes","internalType":"bytes"}],"outputs":[],"stateMutability":"nonpayable"},{"type":"function","name":"setApprovalForAll","inputs":[{"name":"operator","type":"address","internalType":"address"},{"name":"approved","type":"bool","internalType":"bool"}],"outputs":[],"stateMutability":"nonpayable"},{"type":"function","name":"setTokenUnlock","inputs":[{"name":"id","type":"uint256","internalType":"uint256"},{"name":"unlocked","type":"bool","internalType":"bool"},{"name":"basePrice","type":"uint256","internalType":"uint256"}],"outputs":[],"stateMutability":"nonpayable"},{"type":"function","name":"setURI","inputs":[{"name":"_newBaseURI","type":"string","internalType":"string"}],"outputs":[],"stateMutability":"nonpayable"},{"type":"function","name":"supportsInterface","inputs":[{"name":"interfaceId","type":"bytes4","internalType":"bytes4"}],"outputs":[{"name":"","type":"bool","internalType":"bool"}],"stateMutability":"view"},{"type":"function","name":"tokenUnlocked","inputs":[{"name":"tokenId","type":"uint256","internalType":"uint256"}],"outputs":[{"name":"isUnlocked","type":"bool","internalType":"bool"}],"stateMutability":"view"},{"type":"function","name":"totalSupply","inputs":[],"outputs":[{"name":"","type":"uint256","internalType":"uint256"}],"stateMutability":"view"},{"type":"function","name":"totalSupply","inputs":[{"name":"id","type":"uint256","internalType":"uint256"}],"outputs":[{"name":"","type":"uint256","internalType":"uint256"}],"stateMutability":"view"},{"type":"function","name":"transferOwnership","inputs":[{"name":"newOwner","type":"address","internalType":"address"}],"outputs":[],"stateMutability":"nonpayable"},{"type":"function","name":"unpause","inputs":[],"outputs":[],"stateMutability":"nonpayable"},{"type":"function","name":"uri","inputs":[{"name":"_id","type":"uint256","internalType":"uint256"}],"outputs":[{"name":"","type":"string","internalType":"string"}],"stateMutability":"view"},{"type":"function","name":"withdraw","inputs":[{"name":"_addr","type":"address","internalType":"address"}],"outputs":[],"stateMutability":"nonpayable"},{"type":"event","name":"ApprovalForAll","inputs":[{"name":"account","type":"address","indexed":true,"internalType":"address"},{"name":"operator","type":"address","indexed":true,"internalType":"address"},{"name":"approved","type":"bool","indexed":false,"internalType":"bool"}],"anonymous":false},{"type":"event","name":"Minted","inputs":[{"name":"minter","type":"address","indexed":true,"internalType":"address"},{"name":"id","type":"uint256","indexed":true,"internalType":"uint256"},{"name":"quantity","type":"uint256","indexed":false,"internalType":"uint256"}],"anonymous":false},{"type":"event","name":"OwnershipTransferred","inputs":[{"name":"previousOwner","type":"address","indexed":true,"internalType":"address"},{"name":"newOwner","type":"address","indexed":true,"internalType":"address"}],"anonymous":false},{"type":"event","name":"Paused","inputs":[{"name":"account","type":"address","indexed":false,"internalType":"address"}],"anonymous":false},{"type":"event","name":"TransferBatch","inputs":[{"name":"operator","type":"address","indexed":true,"internalType":"address"},{"name":"from","type":"address","indexed":true,"internalType":"address"},{"name":"to","type":"address","indexed":true,"internalType":"address"},{"name":"ids","type":"uint256[]","indexed":false,"internalType":"uint256[]"},{"name":"values","type":"uint256[]","indexed":false,"internalType":"uint256[]"}],"anonymous":false},{"type":"event","name":"TransferSingle","inputs":[{"name":"operator","type":"address","indexed":true,"internalType":"address"},{"name":"from","type":"address","indexed":true,"internalType":"address"},{"name":"to","type":"address","indexed":true,"internalType":"address"},{"name":"id","type":"uint256","indexed":false,"internalType":"uint256"},{"name":"value","type":"uint256","indexed":false,"internalType":"uint256"}],"anonymous":false},{"type":"event","name":"URI","inputs":[{"name":"value","type":"string","indexed":false,"internalType":"string"},{"name":"id","type":"uint256","indexed":true,"internalType":"uint256"}],"anonymous":false},{"type":"event","name":"Unpaused","inputs":[{"name":"account","type":"address","indexed":false,"internalType":"address"}],"anonymous":false},{"type":"error","name":"ERC1155InsufficientBalance","inputs":[{"name":"sender","type":"address","internalType":"address"},{"name":"balance","type":"uint256","internalType":"uint256"},{"name":"needed","type":"uint256","internalType":"uint256"},{"name":"tokenId","type":"uint256","internalType":"uint256"}]},{"type":"error","name":"ERC1155InvalidApprover","inputs":[{"name":"approver","type":"address","internalType":"address"}]},{"type":"error","name":"ERC1155InvalidArrayLength","inputs":[{"name":"idsLength","type":"uint256","internalType":"uint256"},{"name":"valuesLength","type":"uint256","internalType":"uint256"}]},{"type":"error","name":"ERC1155InvalidOperator","inputs":[{"name":"operator","type":"address","internalType":"address"}]},{"type":"error","name":"ERC1155InvalidReceiver","inputs":[{"name":"receiver","type":"address","internalType":"address"}]},{"type":"error","name":"ERC1155InvalidSender","inputs":[{"name":"sender","type":"address","internalType":"address"}]},{"type":"error","name":"ERC1155MissingApprovalForAll","inputs":[{"name":"operator","type":"address","internalType":"address"},{"name":"owner","type":"address","internalType":"address"}]},{"type":"error","name":"EnforcedPause","inputs":[]},{"type":"error","name":"ExpectedPause","inputs":[]},{"type":"error","name":"OwnableInvalidOwner","inputs":[{"name":"owner","type":"address","internalType":"address"}]},{"type":"error","name":"OwnableUnauthorizedAccount","inputs":[{"name":"account","type":"address","internalType":"address"}]},{"type":"error","name":"TokenLocked","inputs":[{"name":"tokenId","type":"uint256","internalType":"uint256"},{"name":"unlocked","type":"bool","internalType":"bool"}]},{"type":"error","name":"WrongMsgValue","inputs":[{"name":"given","type":"uint256","internalType":"uint256"},{"name":"actual","type":"uint256","internalType":"uint256"}]},{"type":"error","name":"ZeroAddress","inputs":[]}],"bytecode":{"object":"0x608060405234801561001057600080fd5b5060405161219638038061219683398101604081905261002f916101ce565b60408051602081019091526000815281906100498161016c565b506001600160a01b03811661007857604051631e4fbdf760e01b81526000600482015260240160405180910390fd5b6100818161017c565b506003805460ff60a01b191690556040805160608101909152603680825261216060208301396007906100b4908261029d565b50600680546001600160a01b039092166001600160a81b031990921691909117600f60a11b179055600080527f5eff886ea0ce6ca488a3d6e336d6c0f75f46d19b42c06ce5ee98e42c96d256c7805460ff19166001179055678ac7230489e800007fec8156718a8372b1db44bb411437d0870f3e3790d4a08526d024ce1b0b668f6b55600a602052671bc16d674ec800007f13da86008ba1c6922daee3e07db95305ef49ebced9f5467a0b8613fcc6b343e35561035b565b6002610178828261029d565b5050565b600380546001600160a01b038381166001600160a01b0319831681179093556040519116919082907f8be0079c531659141344cd1fd0a4f28419497f9722a3daafe3b4186f6b6457e090600090a35050565b6000602082840312156101e057600080fd5b81516001600160a01b03811681146101f757600080fd5b9392505050565b634e487b7160e01b600052604160045260246000fd5b600181811c9082168061022857607f821691505b60208210810361024857634e487b7160e01b600052602260045260246000fd5b50919050565b601f82111561029857806000526020600020601f840160051c810160208510156102755750805b601f840160051c820191505b818110156102955760008155600101610281565b50505b505050565b81516001600160401b038111156102b6576102b66101fe565b6102ca816102c48454610214565b8461024e565b6020601f8211600181146102fe57600083156102e65750848201515b600019600385901b1c1916600184901b178455610295565b600084815260208120601f198516915b8281101561032e578785015182556020948501946001909201910161030e565b508482101561034c5786840151600019600387901b60f8161c191681555b50505050600190811b01905550565b611df68061036a6000396000f3fe6080604052600436106101655760003560e01c806351cff8d9116100d1578063a22cb4651161008a578063e6a72acf11610064578063e6a72acf1461046f578063e985e9c51461049c578063f242432a146104bc578063f2fde38b146104dc57600080fd5b8063a22cb465146103f2578063bd85b03914610412578063c4d271be1461043f57600080fd5b806351cff8d91461034e5780635c975abb1461036e578063715018a61461038d5780638456cb59146103a25780638da5cb5b146103b7578063a0712d68146103df57600080fd5b806322c23bbb1161012357806322c23bbb146102515780632a55205a1461027e5780632eb2c2d6146102bd5780633f4ba83a146102dd5780634e1273f4146102f25780634f558e791461031f57600080fd5b8062fdd58e1461016a57806301ffc9a71461019d57806302fe5305146101cd5780630e89341c146101ef57806315d62ac11461021c57806318160ddd1461023c575b600080fd5b34801561017657600080fd5b5061018a610185366004611503565b6104fc565b6040519081526020015b60405180910390f35b3480156101a957600080fd5b506101bd6101b8366004611543565b610524565b6040519015158152602001610194565b3480156101d957600080fd5b506101ed6101e8366004611608565b610549565b005b3480156101fb57600080fd5b5061020f61020a366004611658565b610561565b60405161019491906116c1565b34801561022857600080fd5b506101ed6102373660046116e4565b6105e9565b34801561024857600080fd5b5060055461018a565b34801561025d57600080fd5b5061018a61026c366004611658565b600a6020526000908152604090205481565b34801561028a57600080fd5b5061029e61029936600461171a565b61061b565b604080516001600160a01b039093168352602083019190915201610194565b3480156102c957600080fd5b506101ed6102d83660046117ec565b61065e565b3480156102e957600080fd5b506101ed6106c5565b3480156102fe57600080fd5b5061031261030d36600461189f565b6106d7565b60405161019491906119a2565b34801561032b57600080fd5b506101bd61033a366004611658565b600090815260046020526040902054151590565b34801561035a57600080fd5b506101ed6103693660046119b5565b6107a3565b34801561037a57600080fd5b50600354600160a01b900460ff166101bd565b34801561039957600080fd5b506101ed6107e8565b3480156103ae57600080fd5b506101ed6107fa565b3480156103c357600080fd5b506003546040516001600160a01b039091168152602001610194565b6101ed6103ed366004611658565b61080a565b3480156103fe57600080fd5b506101ed61040d3660046119d0565b610928565b34801561041e57600080fd5b5061018a61042d366004611658565b60009081526004602052604090205490565b34801561044b57600080fd5b506101bd61045a366004611658565b60086020526000908152604090205460ff1681565b34801561047b57600080fd5b5061018a61048a366004611658565b60096020526000908152604090205481565b3480156104a857600080fd5b506101bd6104b7366004611a03565b610933565b3480156104c857600080fd5b506101ed6104d7366004611a2d565b610961565b3480156104e857600080fd5b506101ed6104f73660046119b5565b6109c0565b6000818152602081815260408083206001600160a01b03861684529091529020545b92915050565b60006001600160e01b0319821663152a902d60e11b148061051e575061051e826109fe565b610551610a4e565b600761055d8282611b06565b5050565b60008181526008602052604090205460609060ff166105b757600082815260086020526040908190205490516304187e3b60e21b81526004810184905260ff909116151560248201526044015b60405180910390fd5b60076105c283610a7b565b6040516020016105d3929190611bc4565b6040516020818303038152906040529050919050565b6105f1610a4e565b6000928352600860209081526040808520805460ff19169415159490941790935560099052912055565b600654600090819081906103e89061063d90600160a01b900460ff1686611c70565b6106479190611c87565b6006546001600160a01b0316969095509350505050565b336001600160a01b038616811480159061067f575061067d8682610933565b155b156106b05760405163711bec9160e11b81526001600160a01b038083166004830152871660248201526044016105ae565b6106bd8686868686610b0d565b505050505050565b6106cd610a4e565b6106d5610b74565b565b606081518351146107085781518351604051635b05999160e01b8152600481019290925260248201526044016105ae565b600083516001600160401b0381111561072357610723611567565b60405190808252806020026020018201604052801561074c578160200160208202803683370190505b50905060005b845181101561079b57602080820286010151610776906020808402870101516104fc565b82828151811061078857610788611ca9565b6020908102919091010152600101610752565b509392505050565b6107ab610a4e565b60405147906001600160a01b0383169082156108fc029083906000818181858888f193505050501580156107e3573d6000803e3d6000fd5b505050565b6107f0610a4e565b6106d56000610bc9565b610802610a4e565b6106d5610c1b565b60008181526008602052604090205460ff1661085857600081815260086020526040908190205490516304187e3b60e21b81526004810183905260ff909116151560248201526044016105ae565b60008181526009602052604090205434146108a0576000818152600960205260409081902054905163dfd87a7360e01b815234600482015260248101919091526044016105ae565b6000818152600a6020908152604080832054600990925282208054919290916108ca908490611cbf565b925050819055506108ed3382600160405180602001604052806000815250610c5e565b60405160018152819033907f25b428dfde728ccfaddad7e29e4ac23c24ed7fd1a6e3e3f91894a9a073f5dfff9060200160405180910390a350565b61055d338383610cbb565b6001600160a01b03918216600090815260016020908152604080832093909416825291909152205460ff1690565b336001600160a01b038616811480159061098257506109808682610933565b155b156109b35760405163711bec9160e11b81526001600160a01b038083166004830152871660248201526044016105ae565b6106bd8686868686610d51565b6109c8610a4e565b6001600160a01b0381166109f257604051631e4fbdf760e01b8152600060048201526024016105ae565b6109fb81610bc9565b50565b60006001600160e01b03198216636cdb3d1360e11b1480610a2f57506001600160e01b031982166303a24d0760e21b145b8061051e57506301ffc9a760e01b6001600160e01b031983161461051e565b6003546001600160a01b031633146106d55760405163118cdaa760e01b81523360048201526024016105ae565b60606000610a8883610ddf565b60010190506000816001600160401b03811115610aa757610aa7611567565b6040519080825280601f01601f191660200182016040528015610ad1576020820181803683370190505b5090508181016020015b600019016f181899199a1a9b1b9c1cb0b131b232b360811b600a86061a8153600a8504945084610adb57509392505050565b6001600160a01b038416610b3757604051632bfa23e760e11b8152600060048201526024016105ae565b6001600160a01b038516610b6057604051626a0d4560e21b8152600060048201526024016105ae565b610b6d8585858585610eb7565b5050505050565b610b7c610f0a565b6003805460ff60a01b191690557f5db9ee0a495bf2e6ff9c91a7834c1ba4fdd244a5e8aa4e537bd38aeae4b073aa335b6040516001600160a01b03909116815260200160405180910390a1565b600380546001600160a01b038381166001600160a01b0319831681179093556040519116919082907f8be0079c531659141344cd1fd0a4f28419497f9722a3daafe3b4186f6b6457e090600090a35050565b610c23610f34565b6003805460ff60a01b1916600160a01b1790557f62e78cea01bee320cd4e420270b5ea74000d11b0c9f74754ebdbfc544b05a258610bac3390565b6001600160a01b038416610c8857604051632bfa23e760e11b8152600060048201526024016105ae565b604080516001808252602082018690528183019081526060820185905260808201909252906106bd600087848487610eb7565b6001600160a01b038216610ce45760405162ced3e160e81b8152600060048201526024016105ae565b6001600160a01b03838116600081815260016020908152604080832094871680845294825291829020805460ff191686151590811790915591519182527f17307eab39ab6107e8899845ad3d59bd9653f200f220920489ca2b5937696c31910160405180910390a3505050565b6001600160a01b038416610d7b57604051632bfa23e760e11b8152600060048201526024016105ae565b6001600160a01b038516610da457604051626a0d4560e21b8152600060048201526024016105ae565b60408051600180825260208201869052818301908152606082018590526080820190925290610dd68787848487610eb7565b50505050505050565b60008072184f03e93ff9f4daa797ed6e38ed64bf6a1f0160401b8310610e1e5772184f03e93ff9f4daa797ed6e38ed64bf6a1f0160401b830492506040015b6d04ee2d6d415b85acef81000000008310610e4a576d04ee2d6d415b85acef8100000000830492506020015b662386f26fc100008310610e6857662386f26fc10000830492506010015b6305f5e1008310610e80576305f5e100830492506008015b6127108310610e9457612710830492506004015b60648310610ea6576064830492506002015b600a831061051e5760010192915050565b610ec385858585610f5f565b6001600160a01b03841615610b6d5782513390600103610efc5760208481015190840151610ef5838989858589610f71565b50506106bd565b6106bd818787878787611095565b600354600160a01b900460ff166106d557604051638dfc202b60e01b815260040160405180910390fd5b600354600160a01b900460ff16156106d55760405163d93c066560e01b815260040160405180910390fd5b610f6b8484848461117e565b50505050565b6001600160a01b0384163b156106bd5760405163f23a6e6160e01b81526001600160a01b0385169063f23a6e6190610fb59089908990889088908890600401611cd2565b6020604051808303816000875af1925050508015610ff0575060408051601f3d908101601f19168201909252610fed91810190611d17565b60015b611059573d80801561101e576040519150601f19603f3d011682016040523d82523d6000602084013e611023565b606091505b50805160000361105157604051632bfa23e760e11b81526001600160a01b03861660048201526024016105ae565b805181602001fd5b6001600160e01b0319811663f23a6e6160e01b14610dd657604051632bfa23e760e11b81526001600160a01b03861660048201526024016105ae565b6001600160a01b0384163b156106bd5760405163bc197c8160e01b81526001600160a01b0385169063bc197c81906110d99089908990889088908890600401611d34565b6020604051808303816000875af1925050508015611114575060408051601f3d908101601f1916820190925261111191810190611d17565b60015b611142573d80801561101e576040519150601f19603f3d011682016040523d82523d6000602084013e611023565b6001600160e01b0319811663bc197c8160e01b14610dd657604051632bfa23e760e11b81526001600160a01b03861660048201526024016105ae565b61118a848484846112c4565b6001600160a01b038416611234576000805b835181101561121a5760008382815181106111b9576111b9611ca9565b6020026020010151905080600460008785815181106111da576111da611ca9565b6020026020010151815260200190815260200160002060008282546111ff9190611cbf565b9091555061120f90508184611cbf565b92505060010161119c565b50806005600082825461122d9190611cbf565b9091555050505b6001600160a01b038316610f6b576000805b83518110156112b357600083828151811061126357611263611ca9565b60200260200101519050806004600087858151811061128457611284611ca9565b602090810291909101810151825281019190915260400160002080549190910390559190910190600101611246565b506005805491909103905550505050565b6112cc610f34565b610f6b8484848480518251146113025781518151604051635b05999160e01b8152600481019290925260248201526044016105ae565b3360005b8351811015611408576020818102858101820151908501909101516001600160a01b038816156113b9576000828152602081815260408083206001600160a01b038c16845290915290205481811015611392576040516303dee4c560e01b81526001600160a01b038a1660048201526024810182905260448101839052606481018490526084016105ae565b6000838152602081815260408083206001600160a01b038d16845290915290209082900390555b6001600160a01b038716156113fe576000828152602081815260408083206001600160a01b038b168452909152812080548392906113f8908490611cbf565b90915550505b5050600101611306565b5082516001036114895760208301516000906020840151909150856001600160a01b0316876001600160a01b0316846001600160a01b03167fc3d58168c5ae7397731d063d5bbf3d657854427343f4c083240f7aacaa2d0f62858560405161147a929190918252602082015260400190565b60405180910390a45050610b6d565b836001600160a01b0316856001600160a01b0316826001600160a01b03167f4a39dc06d4c0dbc64b70af90fd698a233a518aa5d07e595d983b8c0526c8f7fb86866040516114d8929190611d92565b60405180910390a45050505050565b80356001600160a01b03811681146114fe57600080fd5b919050565b6000806040838503121561151657600080fd5b61151f836114e7565b946020939093013593505050565b6001600160e01b0319811681146109fb57600080fd5b60006020828403121561155557600080fd5b81356115608161152d565b9392505050565b634e487b7160e01b600052604160045260246000fd5b604051601f8201601f191681016001600160401b03811182821017156115a5576115a5611567565b604052919050565b6000806001600160401b038411156115c7576115c7611567565b50601f8301601f19166020016115dc8161157d565b9150508281528383830111156115f157600080fd5b828260208301376000602084830101529392505050565b60006020828403121561161a57600080fd5b81356001600160401b0381111561163057600080fd5b8201601f8101841361164157600080fd5b611650848235602084016115ad565b949350505050565b60006020828403121561166a57600080fd5b5035919050565b60005b8381101561168c578181015183820152602001611674565b50506000910152565b600081518084526116ad816020860160208601611671565b601f01601f19169290920160200192915050565b6020815260006115606020830184611695565b803580151581146114fe57600080fd5b6000806000606084860312156116f957600080fd5b83359250611709602085016116d4565b929592945050506040919091013590565b6000806040838503121561172d57600080fd5b50508035926020909101359150565b60006001600160401b0382111561175557611755611567565b5060051b60200190565b600082601f83011261177057600080fd5b813561178361177e8261173c565b61157d565b8082825260208201915060208360051b8601019250858311156117a557600080fd5b602085015b838110156117c25780358352602092830192016117aa565b5095945050505050565b600082601f8301126117dd57600080fd5b611560838335602085016115ad565b600080600080600060a0868803121561180457600080fd5b61180d866114e7565b945061181b602087016114e7565b935060408601356001600160401b0381111561183657600080fd5b6118428882890161175f565b93505060608601356001600160401b0381111561185e57600080fd5b61186a8882890161175f565b92505060808601356001600160401b0381111561188657600080fd5b611892888289016117cc565b9150509295509295909350565b600080604083850312156118b257600080fd5b82356001600160401b038111156118c857600080fd5b8301601f810185136118d957600080fd5b80356118e761177e8261173c565b8082825260208201915060208360051b85010192508783111561190957600080fd5b6020840193505b8284101561193257611921846114e7565b825260209384019390910190611910565b945050505060208301356001600160401b0381111561195057600080fd5b61195c8582860161175f565b9150509250929050565b600081518084526020840193506020830160005b8281101561199857815186526020958601959091019060010161197a565b5093949350505050565b6020815260006115606020830184611966565b6000602082840312156119c757600080fd5b611560826114e7565b600080604083850312156119e357600080fd5b6119ec836114e7565b91506119fa602084016116d4565b90509250929050565b60008060408385031215611a1657600080fd5b611a1f836114e7565b91506119fa602084016114e7565b600080600080600060a08688031215611a4557600080fd5b611a4e866114e7565b9450611a5c602087016114e7565b9350604086013592506060860135915060808601356001600160401b0381111561188657600080fd5b600181811c90821680611a9957607f821691505b602082108103611ab957634e487b7160e01b600052602260045260246000fd5b50919050565b601f8211156107e357806000526020600020601f840160051c81016020851015611ae65750805b601f840160051c820191505b81811015610b6d5760008155600101611af2565b81516001600160401b03811115611b1f57611b1f611567565b611b3381611b2d8454611a85565b84611abf565b6020601f821160018114611b675760008315611b4f5750848201515b600019600385901b1c1916600184901b178455610b6d565b600084815260208120601f198516915b82811015611b975787850151825560209485019460019092019101611b77565b5084821015611bb55786840151600019600387901b60f8161c191681555b50505050600190811b01905550565b6000808454611bd281611a85565b600182168015611be95760018114611bfe57611c2e565b60ff1983168652811515820286019350611c2e565b87600052602060002060005b83811015611c2657815488820152600190910190602001611c0a565b505081860193505b5050508351611c41818360208801611671565b64173539b7b760d91b9101908152600501949350505050565b634e487b7160e01b600052601160045260246000fd5b808202811582820484141761051e5761051e611c5a565b600082611ca457634e487b7160e01b600052601260045260246000fd5b500490565b634e487b7160e01b600052603260045260246000fd5b8082018082111561051e5761051e611c5a565b6001600160a01b03868116825285166020820152604081018490526060810183905260a060808201819052600090611d0c90830184611695565b979650505050505050565b600060208284031215611d2957600080fd5b81516115608161152d565b6001600160a01b0386811682528516602082015260a060408201819052600090611d6090830186611966565b8281036060840152611d728186611966565b90508281036080840152611d868185611695565b98975050505050505050565b604081526000611da56040830185611966565b8281036020840152611db78185611966565b9594505050505056fea264697066735822122081c06e85a503cdbf06115ef13d014685a55649a1c64681301f1fc006dd700cb764736f6c634300081b0033697066733a2f2f516d5a575a45734c4e414b6947576578444d486f71466b7868447258584e5162744d734c3358696f626e4262454d2f","linkReferences":{}},"methodIdentifiers":{"balanceOf(address,uint256)":"00fdd58e","balanceOfBatch(address[],uint256[])":"4e1273f4","exists(uint256)":"4f558e79","incrementAmount(uint256)":"22c23bbb","isApprovedForAll(address,address)":"e985e9c5","mint(uint256)":"a0712d68","mintPrice(uint256)":"e6a72acf","owner()":"8da5cb5b","pause()":"8456cb59","paused()":"5c975abb","renounceOwnership()":"715018a6","royaltyInfo(uint256,uint256)":"2a55205a","safeBatchTransferFrom(address,address,uint256[],uint256[],bytes)":"2eb2c2d6","safeTransferFrom(address,address,uint256,uint256,bytes)":"f242432a","setApprovalForAll(address,bool)":"a22cb465","setTokenUnlock(uint256,bool,uint256)":"15d62ac1","setURI(string)":"02fe5305","supportsInterface(bytes4)":"01ffc9a7","tokenUnlocked(uint256)":"c4d271be","totalSupply()":"18160ddd","totalSupply(uint256)":"bd85b039","transferOwnership(address)":"f2fde38b","unpause()":"3f4ba83a","uri(uint256)":"0e89341c","withdraw(address)":"51cff8d9"},"id":38}